{
  "_format": "hh-sol-artifact-1",
  "contractName": "FairTicket",
  "sourceName": "contracts/FairTicket.sol",
  "abi": [
    {
      "inputs": [],
      "stateMutability": "nonpayable",
      "type": "constructor"
    },
    {
      "anonymous": false,
      "inputs": [
        {
          "indexed": true,
          "internalType": "uint256",
          "name": "ticketId",
          "type": "uint256"
        },
        {
          "indexed": true,
          "internalType": "address",
          "name": "owner",
          "type": "address"
        },
        {
          "indexed": false,
          "internalType": "uint256",
          "name": "price",
          "type": "uint256"
        }
      ],
      "name": "TicketMinted",
      "type": "event"
    },
    {
      "inputs": [
        {
          "internalType": "address",
          "name": "buyerAddress",
          "type": "address"
        },
        {
          "internalType": "uint256",
          "name": "price",
          "type": "uint256"
        }
      ],
      "name": "mintTicket",
      "outputs": [
        {
          "internalType": "uint256",
          "name": "",
          "type": "uint256"
        }
      ],
      "stateMutability": "nonpayable",
      "type": "function"
    },
    {
      "inputs": [
        {
          "internalType": "uint256",
          "name": "",
          "type": "uint256"
        }
      ],
      "name": "tickets",
      "outputs": [
        {
          "internalType": "uint256",
          "name": "id",
          "type": "uint256"
        },
        {
          "internalType": "address",
          "name": "owner",
          "type": "address"
        },
        {
          "internalType": "uint256",
          "name": "price",
          "type": "uint256"
        },
        {
          "internalType": "uint256",
          "name": "timestamp",
          "type": "uint256"
        }
      ],
      "stateMutability": "view",
      "type": "function"
    }
  ],
  "bytecode": "0x608060405234801561001057600080fd5b506100556040518060400160405280601c81526020017f466169725469636b657420436f6e7472616374204465706c6f7965640000000081525061005a60201b60201c565b61023b565b6100f68160405160240161006e91906101ea565b6040516020818303038152906040527f41304fac000000000000000000000000000000000000000000000000000000007bffffffffffffffffffffffffffffffffffffffffffffffffffffffff19166020820180517bffffffffffffffffffffffffffffffffffffffffffffffffffffffff83818316178352505050506100f960201b60201c565b50565b61011a8161011561011d60201b6102181761013e60201b60201c565b60201c565b50565b60006a636f6e736f6c652e6c6f679050600080835160208501845afa505050565b61015060201b61023917819050919050565b61015861020c565b565b600081519050919050565b600082825260208201905092915050565b60005b83811015610194578082015181840152602081019050610179565b60008484015250505050565b6000601f19601f8301169050919050565b60006101bc8261015a565b6101c68185610165565b93506101d6818560208601610176565b6101df816101a0565b840191505092915050565b6000602082019050818103600083015261020481846101b1565b905092915050565b7f4e487b7100000000000000000000000000000000000000000000000000000000600052605160045260246000fd5b6104a38061024a6000396000f3fe608060405234801561001057600080fd5b50600436106100365760003560e01c806350b447121461003b578063a5f7f4661461006e575b600080fd5b6100556004803603810190610050919061027e565b61009e565b60405161006594939291906102fb565b60405180910390f35b6100886004803603810190610083919061036c565b6100ee565b60405161009591906103ac565b60405180910390f35b60016020528060005260406000206000915090508060000154908060010160009054906101000a900473ffffffffffffffffffffffffffffffffffffffff16908060020154908060030154905084565b6000806000815480929190610102906103f6565b919050555060008054905060405180608001604052808281526020018573ffffffffffffffffffffffffffffffffffffffff16815260200184815260200142815250600160008381526020019081526020016000206000820151816000015560208201518160010160006101000a81548173ffffffffffffffffffffffffffffffffffffffff021916908373ffffffffffffffffffffffffffffffffffffffff16021790555060408201518160020155606082015181600301559050508373ffffffffffffffffffffffffffffffffffffffff16817f5c1c9352d51031acc9a558d7cdcca15b0ce5fe4f46d7315cca355248175b0a378560405161020691906103ac565b60405180910390a38091505092915050565b60006a636f6e736f6c652e6c6f679050600080835160208501845afa505050565b61024161043e565b565b600080fd5b6000819050919050565b61025b81610248565b811461026657600080fd5b50565b60008135905061027881610252565b92915050565b60006020828403121561029457610293610243565b5b60006102a284828501610269565b91505092915050565b6102b481610248565b82525050565b600073ffffffffffffffffffffffffffffffffffffffff82169050919050565b60006102e5826102ba565b9050919050565b6102f5816102da565b82525050565b600060808201905061031060008301876102ab565b61031d60208301866102ec565b61032a60408301856102ab565b61033760608301846102ab565b95945050505050565b610349816102da565b811461035457600080fd5b50565b60008135905061036681610340565b92915050565b6000806040838503121561038357610382610243565b5b600061039185828601610357565b92505060206103a285828601610269565b9150509250929050565b60006020820190506103c160008301846102ab565b92915050565b7f4e487b7100000000000000000000000000000000000000000000000000000000600052601160045260246000fd5b600061040182610248565b91507fffffffffffffffffffffffffffffffffffffffffffffffffffffffffffffffff8203610433576104326103c7565b5b600182019050919050565b7f4e487b7100000000000000000000000000000000000000000000000000000000600052605160045260246000fdfea26469706673582212203554160c4263375bac828b38cda656af9ee07ed6fe1a376971fd464ae2f2cfca64736f6c63430008180033",
  "linkReferences": {},
  "deployedLinkReferences": {}
}